:020000040800F2
:10800000980D0020D9B2000855AA000857AA000808
:1080100059AA00085BAA00085DAA00080000000039
:108020000000000000000000000000005FAA00083F
:1080300061AA00080000000063AA000865AA000801
:1080400003B3000807B300080BB3000869AA0008CF
:108050000FB3000813B3000883AA000893AA00080E
:10806000A3AA000817B30008B3AA00081BB30008AE
:108070001FB3000823B3000827B300082BB3000880
:108080002FB3000833B3000837B300083BB3000830
:108090003FB3000843B3000847B30008C3AA000871
:1080A0004BB300084FB3000853B3000857B30008A0
:1080B0005BB3000805AB000811AB00087FAA0008FD
:1080C0005FB3000863B3000867B300086BB3000830
:1080D0006FB300086BAA000873AA000875AA00080D
:1080E000F1AA000867AA000873B3000800000000A6
:1080F0000000000000000000000000000000000080
:1081000000000000000000001DAB000877B300086D
:108110007BB3000877AA00087FB3000883B3000888
:1081200087B300088BB300088FB3000893B300082F
:1081300097B300089BB300089FB30008A3B30008DF
:10814000A7B30008ABB30008AFB3000881AA0008CA
:108150002DE9F04F0FF2B01BA1B0DBE90045CDE9EE
:108160000045049100212A9EDFF8008C8DF84360C1
:108170000D914FF0FF3B814617461D460FE0BA4672
:1081800034461AF8011B0498C8470028049000F0F0
:10819000A7800D98401C641E0D90F2D1BF1938784D
:1081A000252807D100210791089109910A910B9187
:1081B0000C910DE06A465946384600F0E3FF060090
:1081C00001D10D98A8E0DAD50126E7E741F00101D9
:1081D00017F8010F2028F9D023280DD02B2804D020
:1081E0002D2806D030280AD07CE041F0020189B267
:1081F000EEE741F00401FAE741F00801F7E741F04A
:108200001001F4E700200F9009E00F98404505DACF
:1082100000EB800302EB4302303A0F927F1C3A7866
:10822000A2F130000A28F0D33A782E2A18BFCDF8F0
:1082300038B023D117F8010F2A2807D12868286001
:108240007F1C50F8042B28600E9217E02D280CBFDD
:1082500017F8010B002000220E920AE040B90E9A96
:10826000424505DA02EB820403EB4403303B0E93F4
:108270007F1C3B78A3F130020A2AEFD3ADF84010FF
:108280000FF28C00397800F089FF08B117F8010B64
:108290008DF842009DF84200682804BF39786829AB
:1082A00003D162208DF8420007E06C2804BF3878C3
:1082B0006C2803D171218DF842107F1C12A8069002
:1082C0002A4617F8013B02A9484600F065F838B97C
:1082D00012AA02A9484600F0C7F900287FF55FAF4F
:1082E000584619E02A288DD12868286050F8042BB8
:1082F0002860002A0F9204D5524241F004010F92E7
:1083000089B27F1C90E70000000000000000000020
:10831000686A6C747A4C000021B0BDE8F08F622866
:1083200020D0682811D06A2803D06C2827D0712863
:1083300025D10868C01D20F007000860D0E900239F
:1083400008300860194610467047002A0A680A601B
:10835000106803D0121D0A6000B217E0121D0A60F7
:1083600080B217E0002A0A680A60106803D0121D64
:108370000A6040B20AE0121D0A60C0B20AE0002A98
:108380000A680A60106803D0121D0A60C11770479E
:10839000121D0A60002170477CB50D4611461C462F
:1083A0002E69B4F1250200F04D811C3A00F0868060
:1083B000121F022A40F282800E3A00F00781521FFB
:1083C0005AD0093A7AD0921E16D0521E35D0521E7B
:1083D000022A73D9121F30D0521F00F09A80521E09
:1083E0004AD0521E00F0E480D21E00F0FD80921EA2
:1083F00042D0D21E40D02BE195F83A206C2A09D009
:108400006869421C6A610A680A6052F8043B0A60A3
:10841000335427E10A680A6052F8043B0A600021DD
:10842000009301914FF0FF322A6329466A4600F01B
:1084300096F9002840F1168101E195F83A000122F1
:10844000FFF76DFFC5E900010023994204DA68696E
:10845000411C69612D210DE0288F810704D56869D1
:10846000411C69612B2105E0C00722D56869411CC8
:108470006961202131541CE095F83A000022FFF791
:108480004EFFC5E9000195F83800010711D5D5E97F
:1084900000230020834208BF82420AD044F020001B
:1084A000782806D1686930213154401C411C69612B
:1084B0003454214668693044E86083E00868C01D90
:1084C00020F007000860D0E9002308300860C5E903
:1084D0000023D5E90001C80F04D06869411C696117
:1084E0002D210DE0288F810704D56869411C696141
:1084F0002B2105E0C00704D56869411C6961202172
:10850000315468693044E8602146284600F02FFA6B
:10851000A8E005F13A02507820B14FF0FF340FF691
:10852000043070E01078622808D0682824D06A28C7
:1085300012D06C282ED071280ED02BE00A680A6069
:1085400052F8040B0A6020B94FF0FF340FF6EC200C
:1085500059E0E96A017085E00A680A6052F8040B84
:108560000A6020B94FF0FF340FF6D0204BE0EA6AE2
:10857000D317C0E9002375E00A680A6052F8040BBB
:108580000A6020B94FF0FF340FF6B0203BE0E96AF3
:10859000018067E00A680A6052F8040B0A6020B99B
:1085A0004FF0FF340FF694202DE0E96A016059E0A6
:1085B0000A680A6052F8040B0A600021C5E900014C
:1085C000EE607821284600F02AF94BE06C2285F80D
:1085D0003A200B680B6053F8042B0B6052BB4FF032
:1085E000FF340FF68C200EE095F83A206C2AF0D07C
:1085F0000868086050F8044B0860EC603CB94FF024
:10860000FF340FF6502000F0E3FD201A76BD2E6BEC
:10861000002E04D5204600F0FDFD044608E0324659
:108620000021204600F012FE002814BF041B34462F
:10863000AC6117E0294600F092F8002812D54FF0FF
:10864000FF3076BD6869411C69612521315409E01C
:108650006869411C696125223254200002D0481CFF
:1086600068617454002076BD2DE9F0410D46044642
:10867000696B6869AE6A091A286A091AA869091A31
:10868000686A091AE869091A95F838008E1B4107CB
:1086900090460DD4002E0BDD3746A8682021A04758
:1086A0000028A86057D0E86A401C7F1EE862F4D119
:1086B0006B6942462946204600F09DFC00284AD1BD
:1086C0002F6A002F0ADDA8683021A0470028A86083
:1086D00041D0E86A401C7F1EE862F4D1AB69EA68C9
:1086E0002946204600F087FCA8BB6F6A002F09DDF1
:1086F000A8683021A047A86068B3E86A401C7F1EC4
:10870000E862F5D1E868A969EB6942182946204674
:1087100000F071FCF8B9AF6A002F09DDA8683021BC
:10872000A047A860B8B1E86A401C7F1EE862F5D196
:1087300095F8380041070BD5002E09DDA8682021E7
:10874000A047A86038B1E86A401C761EE862F5D1FF
:108750000020BDE8F0814FF0FF30BDE8F0812DE949
:10876000F0470D46A4B02E6B002E8046914648BFC0
:108770006FF0004600F096FD0246686B0FF60C1392
:108780001218D3E90001CDE90101812A28BF4FF079
:10879000FF303ED20024002E2FDDD9F8001001AAB0
:1087A000684600F0F1FC0746002F35D4D9F80000E8
:1087B00008B97F1E30D4BE421FDB68693818812893
:1087C0000AD30020686303AA29464046FFF74CFFFE
:1087D000040012D40020686103A8D5F814A03A461A
:1087E0006946504400F064FDBA44C5F814A059F835
:1087F000040B002818BFF61BCDD12CB903AA2946BB
:108800004046FFF731FF044614B9002068616863F1
:10881000204624B0BDE8F0874FF0FF34F8E72DE99B
:10882000F04704468A462569BAF16F0F08BF08274A
:1088300005D04AF02000782814BF0A2710273C26CC
:10884000D4E90001BAF1640F18BFBAF1690F80468C
:10885000894607D10B4600218B4203DAD8F1000884
:1088600069EB49090020814508BF80451FD1206B75
:10887000E8B9082F47D194F83800010743D53020D4
:108880003B2685F83B003EE000280ED594F83800E2
:1088900000F01400102808D1626B6069121A206A77
:1088A000121A561A002EC8BF2662BDE8F08740464D
:1088B00049463A46FB1700F04FFD3032761ED2B2E1
:1088C0003A2AA4BFAAF151008218AA554046494647
:1088D0003A46FB1700F040FD80468946002081455E
:1088E00008BF804503D0E068A9198842DFD3082F6C
:1088F00009D194F83800010705D5A95D302902D0C7
:10890000761E3020A855A819E060C6F13C01206B06
:10891000A1618142B8DA411A21624FF6EF70218FCE
:1089200001402187BDE8F0872DE9D04306460F4678
:1089300014464FF00008DFF8389412E0E00707D53E
:1089400042464B463046394600F07EFD06460F460D
:108950004046494642464B4600F076FD641080464C
:108960008946002CEAD130463946BDE8D0832DE94E
:10897000F04F0446884648F020008DB0D4E9009BB3
:10898000612802AE0BD0206B002802D506202063A0
:1089900005E001BF48F02000672801212163D4E9E8
:1089A00000A568004015401C0DD129030BD0A8F18B
:1089B000610103201A29A06102D20FF2D86110E0F0
:1089C0000FF2D4610DE068004015401C0ED1290360
:1089D0000CD1A8F1610103201A29A06116D30FF26E
:1089E000C061E068032200F063FCD1E125F00041A2
:1089F000B1F5801F2AF0000211D20027B94208BF4A
:108A0000BA42019705D15046294613E00FF28C6116
:108A1000E7E701AA5046294600F0E8FD0AE0DFF842
:108A2000542302EB1150DFF8501301900D40D3494D
:108A300050462943C4E9000148F02002612A0DD1C3
:108A4000E06830210170811CE160B8F1610F0CBF5A
:108A50007821582141706069801C6061D4E900A5CB
:108A600025F0004300202AF00002834204BF824226
:108A7000002300F0548148F02000612840F09F80DE
:108A8000206B00284CBF2120401C00904846009FCE
:108A90007F1C59460022002300F0E0FDAB46019800
:108AA0008DF8082038BF8BF0004BD146001F002FF7
:108AB00001900DF1090A40F3408140F2FF754846EC
:108AC00059460022002300F0E1FD80F036815A462D
:108AD0005000400D00F11C010FD000290DDDA9420E
:108AE00005DBA7490BF000400143002012E06FF3C3
:108AF0001E5242EA015148460CE02BF0004129F099
:108B00000000994208BF98420FBF59461C2259469F
:108B100000F0D4FD81468B4600F06EFEFF1F002F53
:108B2000064609DD00F086FE02460B4648465946D9
:108B300000F092FE81468B460AF10700072104E00F
:108B400006F00F0200F8012D3611002E01DD491E3E
:108B5000F6D5491E5CBF002200F8012DF9D5E7E0EB
:108B60000020194602AA0A4400E05B1E12F80159CF
:108B7000491E8542F9D00F2804D10DF10900425C4D
:108B8000521C4254002904D50198001D02AE5B1C02
:108B90000190581E0CD43118A8F13A050A783032E9
:108BA000D2B2392AC8BFAA18401E01F80129F5D54A
:108BB000206B002840F1B280591E2163AEE0484688
:108BC00059460022002300F049FD019938BF8BF07F
:108BD000004B47F2975041436A4A91FBF2F20192EF
:108BE000D2F1070204DD48465946FFF79DFE0AE030
:108BF000524200206449FFF797FE02460B46484662
:108C0000594600F09BFE814648F020006628206B04
:108C10005E4D06BF019E0A3606263618142EC8BFC2
:108C2000142630208B468DF808000DF10907002E20
:108C300033DD4846594600F0A5FF01460A4607F1D4
:108C4000080304200A27B2FBF7F707EB870EA2EB15
:108C50004E02303203F8012C0A22B7FBF2F202EB8B
:108C6000820EA7EB4E073037401E03F8027DE9D194
:108C7000083E002E03F10807D9DD084600F096FFF4
:108C800002460B464846594600F0E6FD00222B46B8
:108C900000F0DAFB81468B46CBE70DF10900381A6C
:108CA0000DF1090604E00199491E401E0191761C50
:108CB00031783029F7D048F02002662A02D1019994
:108CC000491C05E048F0200165290CBF0121002165
:108CD000236BCB189842B8BF431E002B1ED483428F
:108CE00004DAF05C3528A8BF392000DA30201946B4
:108CF000721E02EB010900E05B1E19F801B9491E62
:108D00008345F9D0392802D1705C401C7054002989
:108D100004D50198401C16465B1C0190019800B2D6
:108D200000901BB232464146204600F034F82FE056
:108D3000002F00F1070A3FF7C2AE0DF10900AAEBC0
:108D4000000100980B468142C8BF0346002B0DF17D
:108D500009063FF52DAF8B42BFF602AF0DF10900BA
:108D6000C05C07287FF7FCAE0F20FAE6CBCCCC0C1A
:108D70000000244002FCFFFFFFFF0F800000E03FE7
:108D80000000F07FA08601000000F03F84D79741EB
:108D90000DB0BDE8F08F2DE9F04786B00546894655
:108DA00092461F4600F0F2F9002F406A2E6B90F8B1
:108DB000008002DC01270FF2EC2ABDF9384049F0AF
:108DC0002000662808BF641C12D0672877D114F1F0
:108DD000040F7ADBB44278DA95F83800641C010796
:108DE00002D4B742B8BF3E4624B2361B48BF002665
:108DF00024B2E868A969002C22DC4A1C30234354C1
:108E0000002E03DC95F83800010703D5E86800F868
:108E10000280521CE642B8BF744224B2A6196042D6
:108E2000BE42B8BF3746AA6168623FB2EF61E868E8
:108E3000AB693A465146184400F03AFAF61B18E07E
:108E400022469742084416DA3A46514600F030FA74
:108E5000A9697918E01B002EA961686203DC95F806
:108E60003800020705D5E86800F80180E869401C71
:108E7000E861AE62A8E0514600F01AFAA86920182D
:108E80003F1B002E03DC95F838100A0703D5E9686C
:108E900001F80080401CA8613FB2BE42B8BF37460F
:108EA000E868AB693FB23A460AEB0401184400F0A7
:108EB000FFF9A8693818A861F61B6E6284E0B9F161
:108EC000610F14D14FF0700916E0B74204DA95F83B
:108ED00038100A0758BF3E46761E48BF0026B9F133
:108EE000670F14BF4FF045094FF0650904E0B9F171
:108EF000410F08BF4FF05009A969EB68481CA861F1
:108F0000002E1AF8012B5A5403DC95F838100A0782
:108F100017D5E968431CAB6101F80080002E10DD15
:108F20007F1E3FB2BE42B8BF3746E8683FB23A46FE
:108F30005146184400F0BCF9A8693818A861F61B1E
:108F40006E62E868A9690844002C80F8009004D497
:108F50002B21417000F1020A04E02D21417000F143
:108F6000020A64424FF000086E4609E00A2203A894
:108F700000F029FE049806F8010B08F10108039C93
:108F800021B20029F2DCB8F1010F06DC49F0200023
:108F9000652804BF30200AF8010BB8F1000F0AD190
:108FA00030200AF8010B09E0A8F101081DF80800BB
:108FB00030300AF8010BB8F1000FF5DCE868A96958
:108FC0000844AAEB0000E86195F8380000F01400AE
:108FD00010280DD16969A8694118686A4118E869C3
:108FE0004118A86A4118686B8142BCBF411A2962C6
:108FF00006B0BDE8F087F8B505460E4617461C4694
:10900000002074B117F8011BB068A847B06030B1F8
:10901000F06A401CF0620020641EF3D1F2BD4FF0F4
:10902000FF30F2BD7072696E74665F733A20256E10
:1090300020646973616C6C6F776564007072696E2F
:1090400074663A2062616420256E20617267756DD6
:10905000656E74007072696E74665F733A20626147
:109060006420257320617267756D656E7400000061
:109070007072696E74665F733A2062616420256C59
:109080007320617267756D656E74000000000000EA
:10909000000000006E616E004E414E00696E660079
:1090A000494E46003000F0B4034618689D681A180F
:1090B000586802EB5004C00721D54D441FE0F0BCB6
:1090C00003F10C00704712F8017B05F8017B491E83
:1090D000F9D1A0B1B60812F8011B06F00306032E61
:1090E00008BF12F8016B01EB06214942801C29449C
:1090F00005D011F8016B05F8016B401EF9D1A242B1
:10910000DDD012F8016B16F0030104BF12F8011B49
:10911000C91C30090F28DAD112F8010B0F30D6E73D
:109120001C48704730B45368D418042B09DA41B195
:10913000057804F8015B10F8015B15B15B1C491E52
:10914000F3E7536030BC704738B514461D4661B133
:10915000FFF7E8FF61686A6B204690476FF00102F5
:10916000811A02D0491E01D001E003E005E0002190
:10917000616032BD6FF0010032BD4FF0FF3032BD93
:10918000DA6B1047034BDFE7024BF9E70248704701
:10919000000000004C000020140000200278C9B23A
:1091A0008A421AB11CBF10F8012FF9E718BF00203E
:1091B0007047B1F5807F02D34FF0FF3070470170E8
:1091C000012070470078401E8041C043C00F7047A7
:1091D00080B508B90FF21C0005490B681BB12222AB
:1091E0000021984701E000F0F5FC222002BD0000BC
:1091F000C41B0020636F6E73747261696E742068A3
:10920000616E646C65723A20626164206D6573738F
:109210006167650000F10103810704D010F8011BAC
:1092200089B18107FAD10268B2F10131914311F09D
:10923000803F04BF50F8042FF6E710F8011B11B16E
:1092400010F8011BFBE7C01A70470000C9B2830782
:1092500006D0521E22D310F8013B9942F7D11FE0ED
:10926000083A13D302F1040241EA012141EA014123
:1092700050F8043B121F21BF4B40A3F1013C2CEAE4
:10928000030C1CF0803FF3D0C9B2001F083210F865
:10929000013B521E28BF91EA030FF8D818BF0120E6
:1092A000401E704780B5FFF73BFF006C02BD000019
:1092B00062B38B0708D0521E11F8013B00F8013B46
:1092C00000F024808B07F6D1830740F0208000BF98
:1092D000103A07D330B4B1E83810103AA0E838108B
:1092E000F9D230BC530724BFB1E80810A0E8081039
:1092F00044BF51F8043B40F8043BD20724BF31F887
:10930000022B20F8022B44BF0B7803707047121F0A
:1093100017D35B0009D151F8043B20F8023B1B0C2A
:10932000121F20F8023BF6D20BE051F8043B00F884
:10933000013B1B0A20F8023B1B0C121F00F8013BEB
:10934000F3D238BF121D521E24BF11F8013B00F8A2
:10935000013BF8D8704700001B4213D1094236D1B7
:109360002AB18446B0FBF2F002FB10C2704700F055
:1093700035BCFCD30022002370470B000200002103
:1093800000207047904271EB030CF6D370B5B1FA30
:1093900081F4B3FA83F52C1BA340C4F1200532FA03
:1093A00005F63343A2405FF00046E64002E05B086A
:1093B0005FEA3202841A71EB030524BF2046294676
:1093C0007641F4D302000B003000002170BD012A69
:1093D000CFD970B5140C20D0B1FA81F4B2FA82F56D
:1093E000C4F120046419B4F12006D6D3B2405FF072
:1093F0000044F440002502E052085FEA3303C61A35
:1094000071EB020E24BF3046714664416D41F3D3C7
:1094100002000B002000290070BD0C46B1FBF2F1E8
:1094200002FB11452D0445EA1045B5FBF2F402FBA1
:10943000145580B240EA0545B5FBF2F002FB10522C
:1094400040EA044070BD0000B0B581EA030C0CF0A6
:10945000004C40F2FF7515EA11541DBF15EA135771
:10946000AC42AF4239E0E41923EA455343F4801398
:10947000C90241F0004141EA505EC7021100A7FB5A
:10948000020200284FF00000EEFB01204FF0000127
:10949000E3FB072118BF42F00102401800214941B7
:1094A000E3FB0E01A4F580640F0302D25200404199
:1094B000494154F101046CDD470872F1004250F15A
:1094C000000051EB0451A1F580115CBF41EA0C0191
:1094D000B0BD4CEA05510020B0BD05EA1357AC42BF
:1094E00014BFAF4241E050EA410E1CBF52EA430EA6
:1094F00002E061460020B0BD24423C441BD15FEA3B
:10950000070EF6D0090302BF01460020AEF1140E8B
:10951000B1FA81F7AEEB070401FA07FE0C37C7F189
:10952000200100FA07F7C8404EEA000E23EA45532F
:1095300043F48013A2E733F00043B3FA83F704BF88
:10954000B2FA82FE77440B3FE41BB7F1200E2FBF27
:1095500002FA0EF3BB40C7F1200E22FA0EFE38BF0E
:1095600043EA0E03BA40641C82E750EA410E14BF7E
:1095700052EA430E6FF000014FF4001717EB430F50
:109580008ABF194617EB410FB5E74CEA0551002099
:10959000B0BDD4F10104B4F120070FDAC4F1200703
:1095A000520828BF42F0010210FA07F501FA07F746
:1095B000E1BF2A43E0403843E1400FE0352C98DC1E
:1095C000C7F1200452EA400220FA07F218BF42F025
:1095D000010231FA07F0A1400A43002172F1004272
:1095E00050F1000051EB0C01B0BD000010B5144665
:1095F00000F002F8226010BDC1F30A5343B14A00E3
:1096000012F5001F28D2A3F2FE32A1EB02517047DF
:1096100050EA410C20D001F0004C31EA0C01B1FAC3
:1096200081F204BFB0FA80F3D2180B3AB2F12003F2
:109630002CBF00FA03F1914041EA0C013EBFC2F198
:10964000200C20FA0CF319439040524240F2FD33B3
:10965000D21A01EB03517047002270474FF4001CEF
:109660001CEB410F94BF1CEB430F09E041EA030CD4
:1096700050EA4C0C52EA0C0C03D2994208BF9042BB
:10968000704714BF8B428242704700004FF4001CA9
:109690001CEB410F94BF1CEB430F09E041EA030CA4
:1096A00050EA4C0C52EA0C0C03D28B4208BF8242A7
:1096B000704714BF9942904270470000124254D440
:1096C00040F2FF7C1CEA11530FD0634531D09B1848
:1096D00063453CBF01EB0251704701F0004141EA94
:1096E0000C510020AFF30080704750EA410320D0B6
:1096F00001F0004C91EA0C011CD0B1FA81F30B3B54
:109700009A420DD9D21A994051EA0C01C3F1200CAA
:1097100020FA0CFC61449840531C40F2FF7CD7E7D0
:10972000914041EA0C01C2F1200C20FA0CF31943DC
:1097300090407047B0FA80F31533202BE0D3202AF5
:10974000EED3203A203B9A4209D9D21A00FA03F10B
:1097500041EA0C010020531C40F2FF7CB8E700FAFC
:1097600002F141EA0C0100207047524240F2FF7CB6
:109770001CEA11530DD06345DBD0B2EB030C3CBFA8
:10978000A1EB025170470CF1010221EA035141F4AF
:10979000801150EA410CCCD001F0004C352A27DC76
:1097A00030B481EA0C01B2F1200309DAC2F12003DE
:1097B000044601FA03F5D0402843D1409C400CE018
:1097C000C3F12002450020FA03F418BF44F001045D
:1097D00021FA03F091400C43002174F1004550F14F
:1097E000000051EB0C01244230BC7FF47BAF70478A
:1097F0006146002076E70000C1F30A5340F2FE32D2
:109800009B1A14DDD3F120034FEAE17208DDC9028F
:1098100041EA505141F00040D84080185040704714
:1098200003F2E13010B1D24382F0004070470020D3
:1098300070470000C11768B14840401AB0FA80F282
:109840009040D21CC907C2F5846241EA025202EB81
:10985000D02140057047000070B44FF0004591EAF8
:10986000030F40F1BD816B40841A71EB030603D2F4
:10987000001BB141121973414FF4001C1CEB410F46
:1098800034BF7CEB430442E00C0DA4EB1356352EA1
:109890004FDC45EAC323DB0A45EAC121C912B6F110
:1098A00020050DDD63FA05F6EB4086EA030512425A
:1098B00018BF45F00105C01851F100010CD213E0AA
:1098C00062FA06F5F2405540F3415A40B340F34086
:1098D0005A408018594107D349085FEA30005FEACF
:1098E000350528BF45F0010501F58011420875F1E5
:1098F000004250F1000041EB04514E0016F5001FEC
:1099000070BC38BF70470020090D090570471CEB7B
:10991000410F10D252EA43060BD0BCEB410F05D8E1
:109920000C0DAB43661E342EB6DD02E0AB4380184F
:10993000594170BC704770BC70470000F0B540F2F0
:10994000FF7581EA030C0CF0004C15EA11541DBFA1
:1099500015EA1357AC42AF42E5E0BC41C1F3130135
:10996000C3F31303801A994143F4801304D2641E95
:109970004000494180185941C90241EA5051B1FBA8
:10998000F3F603FB1611A2FB0675D7EBC020A94125
:1099900002D2761E80185941C90241EA5051B1FBEA
:1099A000F3FE03FB1E11A2FB0E75D7EBC020A941ED
:1099B00003D2AEF1010E80185941890241EA90515B
:1099C000760546EA8E2EB1FBF3F603FB1611A2FBD9
:1099D0000675D7EB8020A94102D2761E8018594126
:1099E000C90241EA50514EEA060EB1FBF3F603FB01
:1099F0001611A2FB0675D7EBC020A94102D2761E34
:109A000080185941C90241EA5051B1FBF3F703FBF9
:109A10001711A2FB0735D3EBC020A94167F100075E
:109A20000CBF004247F0010766F3D5274FEA1E310D
:109A3000B80814F5806412DDBD0775F1004250EBE3
:109A40000E5051EB045111F5801F5CBF41EA0C012F
:109A5000F0BD4CF07F6141F0E0410020F0BDBD075A
:109A60006D0840EA0E5041F48011D4F10104B4F1C4
:109A700020060ADAC4F120060200E04001FA06F3EB
:109A8000E1401843B24015430EE0342C13DCC6F11C
:109A9000200445EA40056D0820FA06F2154321FA34
:109AA00006F0A1400D43002175F1004250F1000085
:109AB00051EB0C01F0BD00205FEA0C01F0BDCFB905
:109AC00092185B41B3FA83F704BFB2FA82F6BF196A
:109AD0000B3FB7F120062FBF02FA06F3BB40C7F1D8
:109AE000200622FA06F638BF3343BA401CB1E41907
:109AF000641E33E77F4231F00041B1FA81F404BFC4
:109B0000B0FA80F6A4190B3CB4F120062FBF00FA7E
:109B100006F1A140C4F1200620FA06F638BF314311
:109B2000A0403C1B1AE7AC421ABF05EA1357AF42EC
:109B300012E050EA41061CBF52EA4306BFE750EA72
:109B40004107304661461CBF41EA0551F0BD52EA6B
:109B5000430C08BFC143F0BD00204FF4001616EBC4
:109B6000410F98BF16EB430F08BF16EB410F24BF00
:109B7000C14305E016EB430F0CBF61464CEA0551AB
:109B8000F0BD0000400D491840EA81200CD2490D7B
:109B9000A1F58061491C40F0004005DBD1F11F01B7
:109BA00054BFC840C017704700207047014648B1F5
:109BB000B0FA80F18840C91CC1F58461090501EB48
:109BC000D0214005704791FBF2F303FB1211C0E96D
:109BD00000317047012000F0B7B800007047000066
:109BE000841A71EB030604D26E40001BB1411219B6
:109BF00073414FF4001C1CEB410F34BF7CEB430658
:109C000082E00C0DA4EB1356362E7BDC012E45EAC8
:109C1000C32341DC43EA525312BFD20292025B08D3
:109C2000240545EAC12141EA5051D2EBC0209941B7
:109C300025D407D1B0FA80F610FA06F162D00020E0
:109C4000203608E0B1FA81F6B140C6F1200220FAD0
:109C500002F21143B0404FEAF474B4EB465434F0CE
:109C600001064FEA74040AD8D6F50016760D04F002
:109C70000044F04061FA06F25040F1404840C00A0A
:109C800040EA415021F0004128BF5FEA500550F101
:109C9000000044EBD12135E0DB0A45EAC121C90AC5
:109CA000B6F120050EDD42EA0242120CC5F1200693
:109CB00003FA06F6EB4042EA06056D42984161F16F
:109CC00000010DE062FA06F5F240554063FA06FC29
:109CD00082EA0C02F3405A406D42904161EB03016D
:109CE00011F4801F05D1641E620502D06D00404151
:109CF000494121F48011430875F1004350F10000FF
:109D000041EB045170BC70471CEB410F15D223F09E
:109D1000004352EA43060BD04FEA4C0CBCEB410F18
:109D200004D80C0D661E342EB7DDEBE7801A99417E
:109D300050EA410608BF0021E4E708BF1CEB430FCF
:109D400028BF6FF00001DDE780B500F007F8024A98
:109D500011001820ABBEFBE72600020010B500F092
:109D600031F802000023DB4300241068984203D03E
:109D700011000220ABBE14605068984203D0111D40
:109D80000220ABBE546010BD10B584B0040000F0DA
:109D900019F8A100421810680021C94388420DD16A
:109DA00007A00090002C01D1002000E004200190C9
:109DB0000320029069460120ABBE106004B010BDC4
:109DC0003A747400004870478C01002000B587B0D9
:109DD0000121392000F0A0F901215FF4801000F08A
:109DE000ABF90420ADF8000003208DF8020010202C
:109DF0008DF803006946784800F0C0F904217648E0
:109E000000F021FA4FF48050ADF8000003208DF8E7
:109E1000020018208DF8030069466F4800F0AEF983
:109E20000420ADF8000004208DF8030069466B485B
:109E300000F0A4F94FF4C06000F050FA35208DF81E
:109E4000040000208DF8050008208DF80600012090
:109E50008DF8070001A800F046FA4FF41650029062
:109E60000020ADF80C000020ADF80E000020ADF889
:109E700010000020ADF814000C20ADF8120002A96B
:109E8000574800F077FA012240F22551544800F07B
:109E9000E1FA0121524800F0CFFA07B000BD80B5C9
:109EA00004214D4800F0CCF901BD10B54D480478AF
:109EB000601C4C4908704A4800F0FBFA4A49E4B279
:109EC000085540F22551464800F004FB10BD10B57E
:109ED00040A100F00FFB040003E02100434800F024
:109EE0002DFB002CF9D13BA1002000F003FB040066
:109EF00021003F4800F022FB36A1002000F0FAFAD2
:109F0000040021003B4800F019FB32A1002000F0C2
:109F1000F1FA04002100384800F010FB2DA10020C8
:109F200000F0E8FA04002100344800F007FB29A102
:109F3000002000F0DFFA04002100314800F0FEFAB2
:109F400024A1002000F0D6FA040021002D4800F0E2
:109F5000F5FA20A1002000F0CDFA040010BD38B5BC
:109F600020480078002833D0002423E01E48005DFC
:109F70002549264A1278885424480078401C2349F1
:109F800008701948005D0A2813D1062220491E488E
:109F900000F0E8FA002802D11B48FFF798FF1B48A1
:109FA00001780022184D280000F0F0FA002017492F
:109FB0000870641C0B4800788442D7DB094801789C
:109FC0000022094C200000F0E1FA00200549087049
:109FD00031BD00002C0000000010014000140140C1
:109FE00000500040CD1B002098180020D4B100087C
:109FF00040B2000858B2000870B20008F0B1000882
:10A00000C4B2000888B2000898190020CE1B0020B6
:10A01000F4B2000830B40021002200210021002108
:10A020000023002100244C49096811F00C0100298B
:10A0300004D0042905D0082906D040E04849016031
:10A040003FE0484901603CE043490A6812F470125D
:10A050004149096811F48031920C0D2A01D0921CFB
:10A0600000E00622002903D13F494A43026025E06F
:10A070003A49096811F48031384B1B6813F00F031B
:10A080005B1C002906D13749B1FBF3F102FB01F259
:10A09000026013E031490968C1F30311491C2F4CD8
:10A0A0002468C4F30324A41C2E4DB5FBF1F104FB7A
:10A0B00001F4B4FBF3F102FB01F2026001E0284974
:10A0C00001602549096811F0F0010909274A515C2E
:10A0D0000268CA4042602049096811F4E061090A37
:10A0E000224A515C4268CA4082601B49096811F4E7
:10A0F0006051C90A1D4A515C4268CA40C260164993
:10A10000096811F44041890B194A515CC268B2FBDD
:10A11000F1F1016130BC7047C9B2002905D0154981
:10A12000096808431349086005E01249096831EAE3
:10A130000000104908607047C9B2002905D00E49D7
:10A14000096808430C49086005E00B49096831EAD1
:10A150000000094908607047041002402C100240BA
:10A1600000127A0040787D0100093D0000000020C7
:10A1700010000020181002401C10024070B4002390
:10A1800000220025002600240022CB7813F00F03C4
:10A19000CA78D20601D58A7813430A78120621D0EC
:10A1A000046800251BE0CA78482A17D10122AA407A
:10A1B000026113E00126AE400A883240B2420DD15E
:10A1C000AE000F22B240944313FA06F62643340041
:10A1D000CA78282AE7D10122AA4042616D1C082DC5
:10A1E000E8D304600A88B2F5807F27DB4468002545
:10A1F00021E0012215F1080612FA06F60A8832401B
:10A20000B24217D1AE000F22B240944313FA06F6C1
:10A2100026433400CA78282A04D1012615F1080201
:10A2200096404661CA78482A04D1012615F10802F1
:10A23000964006616D1C082DDBD3446070BC7047EE
:10A2400089B20161704789B24161704730B4002220
:10A25000002400230024002802D51E4A136801E0D0
:10A260001D4A1368C0F3034482B210F44015B5F5DB
:10A27000401F08D133F07063174C246834F07064C9
:10A28000154D2C6013E0C50208D5032515FA04F41A
:10A2900033EA0404230053F0706308E00400640D03
:10A2A000E4B2240112FA04F4A34353F07063C9B278
:10A2B000002906D00100490DC9B209018A401A439C
:10A2C0001300002802D50348036001E00248036040
:10A2D00030BC70471C000140040001401E49084387
:10A2E0001E490860704710B4002100220F23C17876
:10A2F00000291FD01949096811F4E061D1F5E06126
:10A30000090AD1F10402CB404478110014FA01F19A
:10A310008278134019430901114A0378D15401216D
:10A32000027812F01F0291400E4A0078401142F864
:10A33000201009E00121027812F01F0291400A4A20
:10A340000078401142F8201010BC7047074A1140B5
:10A3500008430749086070470000FA050CED00E06B
:10A3600000E400E000E100E080E100E080FFFF1F8A
:10A3700008ED00E070B586B004000D00002100215A
:10A38000002200220026A88900282600218A4CF6F7
:10A39000FF700140E88801432182A1894EF6F31045
:10A3A0000140AA8828890243688902431143A18198
:10A3B000A18A4FF6FF400140A8890143A182684667
:10A3C000FFF728FE1B48864201D1039900E002995D
:10A3D000A089000406D51920414328684000B1FB3C
:10A3E000F0F205E01920414328688000B1FBF0F24B
:10A3F0006420B2FBF0F109010B001B09642000FB93
:10A400001322A089000408D5D00032306422B0FBAA
:10A41000F2F010F00700014307E01001323064222F
:10A42000B0FBF2F010F00F000143218106B070BDC7
:10A430000000000000380140C9B2002904D0818921
:10A4400051F40051818104E082894DF6FF710A4088
:10A450008281704730B4002300240024002589B293
:10A4600040F66A13994205000B00DBB25B09DBB2D0
:10A4700089B211F01F010C00012010FA04F4012B25
:10A4800001D10C3504E0022B01D1103500E0143568
:10A49000D2B2002A03D0286804432C6003E0286865
:10A4A00030EA04042C6030BC7047C905C90D8180B6
:10A4B00070478088C005C00D70470200002089B237
:10A4C000B1F5007F1088084201D0012000E0002093
:10A4D000C0B270470022002289B240F66A1291424F
:10A4E00089B2090A0A00012111FA02F292B2D2439A
:10A4F0000280704738B504000D4609D0204600F0B0
:10A5000078F80444207848B90B4A0021116032BD24
:10A5100009480468002CF1D1002032BD29462046AC
:10A5200000F078F82118087810B1002201F8012B0A
:10A530002046014A116032BDC01B00200EB4C0B5D8
:10A54000024603A800210190009101AB01210448BB
:10A5500078440C30FDF7FCFD06BC5DF810FB00BF35
:10A56000410D000004E010F8013B6BB1491C521E84
:10A5700052B10B7890F800C09C45F4D002D24FF055
:10A58000FF307047012070470020704762F30F22B0
:10A5900062F31F42401810F0030308D0C91A1FD3FA
:10A5A000DB0748BF00F8012D28BF20F8022D13005B
:10A5B00030B414461546103928BF20E93C00FAD8BB
:10A5C000490728BF20E90C0048BF40F8042D890046
:10A5D00028BF20F8022D48BF00F8012D30BC70477D
:10A5E000C91818BF00F8012DCB0728BF00F8012DAE
:10A5F000704770B4044604E015F8016BB34203D110
:10A60000641C23781BB10D462A78002AF4D1201A45
:10A6100070BC704770B4044600E0641C23783BB102
:10A620000D462A78002AF8D015F8016BB342F8D10C
:10A63000201A70BC7047000080B55F48006850F079
:10A6400001005D4908605D4801685D4801405B4864
:10A650000160594801685B4801405748016056480D
:10A66000006830F48020544908605448006830F491
:10A67000FE00524908605048006830F0A0504E4932
:10A6800008605FF47F005049086000204F4908606F
:10A6900000F005F85FF000604D49086001BD80B52D
:10A6A00000F001F801BD82B0002001900020009070
:10A6B0004148006850F480303F4908603E480068D7
:10A6C00010F4003000900198401C01900098002880
:10A6D00003D10198B0F5A06FF0D13748006880032E
:10A6E00002D50120009001E0002000900098012890
:10A6F0005FD13848006850F010003649086035488E
:10A70000006880088000334908603248006850F0D3
:10A710000200304908602948006828490860274835
:10A720000068264908602548006850F48060234985
:10A7300008602648016828480140244801602348F1
:10A74000006840F4833050F04400204908601A4803
:10A75000006850F0806018490860174800680001E0
:10A76000FBD51648006830F47C1014490860134883
:10A77000006850F4E810114908600F48006850F074
:10A7800080700D4908600C4800688001FBD50B48BB
:10A79000006880088000094908600848006850F097
:10A7A0000200064908600548006810F00C000828FF
:10A7B000F9D102B0704700000010024004100240BE
:10A7C0000000FFF0FFFFF6FE081002402C100240D0
:10A7D00008ED00E00020024000F0FEFF00B587B069
:10A7E000012144F20900FFF797FC01210420FFF743
:10A7F0002DFD4020ADF8000003208DF80200182048
:10A800008DF8030069463B48FFF7B8FC8020ADF89F
:10A81000000004208DF8030069463648FFF7AEFCBF
:10A820005FF4E13002900020ADF80C000020ADF89C
:10A830000E000020ADF810000020ADF814000C2030
:10A84000ADF8120002A92C48FFF794FD4FF4C06048
:10A85000FFF744FD25208DF8040000208DF8050049
:10A8600009208DF8060001208DF8070001A8FFF7E8
:10A870003AFD012240F225511F48FFF7EBFD01216F
:10A880001D48FFF7D9FD07B000BD10B51B4804787F
:10A89000601C1A4908701848FFF70BFE1849E4B20B
:10A8A000085540F225511448FFF714FE10BD10B5AD
:10A8B0001248007800281CD000240CE01048015DEC
:10A8C00089B20D48FFF7F1FD80210B48FFF7F5FD38
:10A8D0000028F9D0641C094800788442EEDB074860
:10A8E00001780022064C2000FFF750FE00200349AB
:10A8F000087010BD000C014000380140CC1B002046
:10A9000098170020F8B5054605F10F04E408AFF3E9
:10A910000080E400A54242D2082C04D2082402E0C0
:10A92000083000F040F8DFF8FC603568290005D1F8
:10A93000002007E00268A24223D2011D0868002817
:10A94000F8D12868311D0A68824224D01368A342D6
:10A9500038BF111DF7D314E03A190A60001B7B6859
:10A9600053600A6810603C60096800291DBF486890
:10A970000028081D00203060AFF3008007F10800B8
:10A98000F2BD61B10F683868A0F10802A242E3D2BB
:10A9900078680860E8E700F047F80028C0D1AFF316
:10A9A00000800020F2BD00B9704738B5A0F108045E
:10A9B000206807282AD910F0070F27D1AFF30080AD
:10A9C000184A516809B18C4202D2616054600EE0AD
:10A9D0004868E0B1A04238BF0146F9D317E04868A3
:10A9E00018B12368234498420ED360604C606068BD
:10A9F00050B12368E118814206D10021116001683D
:10AA0000CB18236040686060AFF3008031BD0D68F3
:10AA100048198442F8D3A042E1D1206845190D605D
:10AA20000C46E4E7B81B00200749086808B100207D
:10AA300070470648C008C00008600549C908C90039
:10AA4000091A0160704700BFC81B00209F0D00203D
:10AA5000981700207047FEE7FEE7FEE7FEE7704725
:10AA60007047704770477047704780B5FFF70DFF1C
:10AA700001BD7047704780B5FFF717FA01BD7047F9
:10AA8000704780B5012000F055F8012000F063F810
:10AA900001BD80B5022000F04DF8022000F05BF807
:10AAA00001BD80B5042000F045F8042000F053F803
:10AAB00001BD80B5102000F03DF8102000F04BF8EB
:10AAC00001BD80B54FF4807000F034F8002804D048
:10AAD0004FF4807000F03FF809E04FF4007000F090
:10AAE00029F8002803D04FF4007000F034F801BDBD
:10AAF00080B54FF4004000F01DF84FF4004000F026
:10AB00002AF801BD80B50121074800F02DF801BDEC
:10AB100080B50121054800F027F801BD80B501216D
:10AB2000034800F021F801BD000400400008004087
:10AB3000000C004001000020002009480068084087
:10AB4000084A12680A4203D0002801D0012000E020
:10AB50000020C0B270470349086070470000000041
:10AB6000000401401404014089B2C94301827047C6
:10AB70002DE9F04107468846387810F0030F164655
:10AB80001D4633D0384600F099F878BBB8F1000F75
:10AB90001CBFD8E900018619012D2ED13888C104C7
:10ABA00015D5396A07F14402384600F0A3F83A6B2C
:10ABB000044602B93A69F968384600F09BF8361B3A
:10ABC000341A7A69F968384600F094F8261A1EB9E2
:10ABD0004DB916F1010F09D097F903002A46314605
:10ABE00000F08EF8064616F1010F09D12320AFF3CD
:10ABF00000804FF0FF30BDE8F081022DE8D1EBE797
:10AC0000388810F4405F0ED07868F8603861786159
:10AC1000B8617868F86107F14400386207F13000E4
:10AC2000786200203863B8F1000F05D0D8E902013E
:10AC300007F13402C2E9000139884CF6FF60014097
:10AC400039800020BDE8F08170B50446AFF3008084
:10AC50002088810415D566680025E26894F9030010
:10AC60003146914212D2521A00F070F810F1010FE1
:10AC70001CBF00283618F0D10FE04DF6FF700140E0
:10AC800021802046AFF30080002070BD002200210B
:10AC900000F05CF810F1010F00D101256068E06060
:10ACA000A061E061002D2188E7D041F4007121808E
:10ACB0002046AFF300804FF0FF3070BDF8B5A0B96B
:10ACC000AFF3008000250A4E08244FF0FF373068AC
:10ACD00020B1FFF7B9FF002848BF3D46361D641E6E
:10ACE000F5D1AFF300802846F2BDBDE8F240ABE7F6
:10ACF0006C010020914234BF511A00210846704770
:10AD000030B583B004000D00012A02D100F06AF8CA
:10AD100007E0022A07D100940020019069460C2028
:10AD2000ABBE2D1801E0002A0CD1009401956946B4
:10AD30000A20ABBE002805D100222100280000F027
:10AD40002EF801E00020C04303B030BD80B50028DC
:10AD500002D400F069F802BD002002BD10B4314AEF
:10AD6000002113461C6884421EBF491C9C68844213
:10AD70001EBF491C1C69844209D09C69491C84423D
:10AD800005D0491C20331029ECD310BC7047002398
:10AD900042F8313002EBC1014B6010BC704770B417
:10ADA000204C002325462E688E421EBF5B1CAE68D9
:10ADB0008E421EBF5B1C2E698E4209D0AE695B1CA1
:10ADC0008E4205D05B1C2035102BECD370BC704735
:10ADD000054604EBC303012A04BF59684D195D60A1
:10ADE00070BC704710B40F4A002113461C6884429F
:10ADF0001EBF491C9C6884421EBF491C1C698442BA
:10AE00000AD09C69491C844206D0491C2033102971
:10AE1000ECD310BC0020704702EBC100406810BCAE
:10AE200070470000981A002080B5002901D1002049
:10AE300002BD012801D0022802D100F004F802BDB1
:10AE400000F011F802BD30B583B00C0015000120F0
:10AE5000FEF79AFF00900194029569460520ABBE6B
:10AE6000281A03B030BD10B584B00300140000935D
:10AE70000191029469460520ABBE01221900201AF7
:10AE8000FFF78DFF04B010BD10B50446E068A1695E
:10AE9000884251D3218849F202020A40022A08D08E
:10AEA00008044CBF4FF400704FF4844001432180EC
:10AEB0003BE001F4C041B1F5C04F06D1A168884222
:10AEC00003D32046FFF7FAFE78BB208810F4406FCA
:10AED00002BF606804F14401884217D14FF400704A
:10AEE000FFF710FD606030B904F144006060E0607D
:10AEF000401CA0600AE0218841F040012180E06010
:10AF0000606100F500726068A260E06160682061C5
:10AF1000A068A061207841070AD5022200212046BE
:10AF200000F00CF810F1010F02D14FF0FF3010BD0E
:10AF3000208840F4C0402080002010BD70B5044639
:10AF40000D461646AFF3008033462A4600212046C0
:10AF5000FFF70EFE05462046AFF30080284670BD81
:10AF600038B504000ED0207810F0030F03D094F908
:10AF70000300002809D5AFF30080204600F030F828
:10AF8000AFF300804FF0FF3032BD2046FFF796FE52
:10AF90000546AFF300802078410644BF606800F0AA
:10AFA0005DF80020606094F90300022804D900F0E5
:10AFB00057F808B14FF0FF35E06B48B100F05DF88D
:10AFC00008B14FF0FF35E06B00F048F80020E06377
:10AFD000204600F005F8AFF30080284632BD00009F
:10AFE00001780A0626D51C4A13680021834203D142
:10AFF000002342F821301BE05368012183421EBF29
:10B00000022193688342F3D0D368032183421EBF99
:10B01000042113698342EBD05369052183421EBF8B
:10B020000621936983421EBF0721D3698342DFD083
:10B0300000F014B8002101804FF0FF31C17000F121
:10B0400044014160C160016141618161C16101628E
:10B0500000F13001416270476C010020FFF7A3BC92
:10B0600010B582B00200009269460220ABBE040017
:10B070001000FFF773FE200016BD00B583B00090EE
:10B08000FEF7C8F8019069460E20ABBE03B000BDC4
:10B0900038B505460C462046AFF30080E068A1694C
:10B0A000884204D32046FFF7EFFE002810D4E06862
:10B0B000401CE06000F8015D2088010504D44005D3
:10B0C0000CD5EDB20A2D09D12046FFF7F7FD28B1C6
:10B0D0002046AFF300804FF0FF3032BD2046AFF383
:10B0E0000080E8B232BD19E050F8042BD30744BF0A
:10B0F000A9F101039A18091F0023042942F8043B0F
:10B10000F9D25FEA817C134604D54FF0000CA2F817
:10B1100000C09B1CC90744BF0021197050F8041BD4
:10B120000029E1D17047000038B50D4D082428688A
:10B1300000281CBF017811F0030F05D090F903100F
:10B14000002958BFFFF70CFF2D1D641EEFD1BDE88D
:10B150003840002200214FF0FF30FFF7F7BD00BF5D
:10B160006C01002080B5FFF767FA4FF400415FF0F3
:10B170000060FFF7EBF8FFF731FBFEF727FEFEF765
:10B180008EFEFFF794FBFEF7EAFEFAE710B50749DB
:10B1900079441831064C7C44163404E00A68081DD2
:10B1A000114488470146A142F8D110BD08000000B3
:10B1B0002400000033FFFFFF380400009817002030
:10B1C00000000000E3DEFFFFEC01000026010000AC
:10B1D00000000020202020205B4D657373616765AF
:10B1E000204944203A2025735D200D0A000000000C
:10B1F000202020205B4E2F5320496E6469636174C8
:10B200006F72203A2025735D200D0A0000F00BF8C4
:10B21000002801D0FFF7BAFF0020AFF30080FFF74E
:10B22000A1FF00F002F80120704700F001B8000013
:10B230000746FFF779FF3846FEF786FDFBE700007B
:10B24000202020205B5554432054696D65203A200E
:10B2500025735D200D0A0000202020205B537461BF
:10B26000747573203A2025735D200D0A00000000DC
:10B27000202020205B4C69746974756465203A2035
:10B2800025735D200D0A0000202020205B436865A7
:10B29000636B73756D203A2025735D200D0A0000E5
:10B2A00038B504460D46284600F006F8A84218BFF7
:10B2B0000024204632BD00000149FFF7E9BE00BF6F
:10B2C000DC000020202020205B44415445203A200F
:10B2D00025735D200D0A00000148804701480047A2
:10B2E00039A60008E9B20008AFF30080AFF3008090
:10B2F000FFF78CFF244750524D43000000002E0002
:10B300004300FFF7FEBFFFF7FEBFFFF7FEBFFFF7EB
:10B31000FEBFFFF7FEBFFFF7FEBFFFF7FEBFFFF761
:10B32000FEBFFFF7FEBFFFF7FEBFFFF7FEBFFFF751
:10B33000FEBFFFF7FEBFFFF7FEBFFFF7FEBFFFF741
:10B34000FEBFFFF7FEBFFFF7FEBFFFF7FEBFFFF731
:10B35000FEBFFFF7FEBFFFF7FEBFFFF7FEBFFFF721
:10B36000FEBFFFF7FEBFFFF7FEBFFFF7FEBFFFF711
:10B37000FEBFFFF7FEBFFFF7FEBFFFF7FEBFFFF701
:10B38000FEBFFFF7FEBFFFF7FEBFFFF7FEBFFFF7F1
:10B39000FEBFFFF7FEBFFFF7FEBFFFF7FEBFFFF7E1
:10B3A000FEBFFFF7FEBFFFF7FEBFFFF7FEBFFFF7D1
:10B3B000FEBF000012000120020102030404F00994
:10B3C000080607080902040608FCB2000452FF013F
:10B3D000F200FE14114A1002B300080107F0031630
:10B3E0001400002000012002C59100082C43B391F5
:10B3F0003C2101100301040000D84412D90452D8A2
:10B4000004211BA108F212C46410070204010168A0
:10B410001B0020B80452680421346108F004122093
:10B420000100200C01485002080202184052180482
:10B4300021346108126844F212544812947312DCE9
:07B4400004F206242C655CF8
:040000050800B2E954
:00000001FF
